{"abi":[{"type":"function","name":"toTypedDataHash","inputs":[{"name":"domainSeparator","type":"bytes32","internalType":"bytes32"},{"name":"structHash","type":"bytes32","internalType":"bytes32"}],"outputs":[{"name":"digest","type":"bytes32","internalType":"bytes32"}],"stateMutability":"pure"}],"bytecode":{"object":"0x6080604052348015600f57600080fd5b5060e08061001e6000396000f3fe6080604052348015600f57600080fd5b506004361060285760003560e01c80637df7a71c14602d575b600080fd5b604d60048036036040811015604157600080fd5b5080359060200135605f565b60408051918252519081900360200190f35b6000606983836070565b9392505050565b6040517f1901000000000000000000000000000000000000000000000000000000000000815260028101929092526022820152604290209056fea26469706673582212201afd1e0efe016e7e9ba9d2a257aff20b9ea5b84a5ace9145d7dcd13b9876072664736f6c634300060c0033","linkReferences":{}},"methodIdentifiers":{"toTypedDataHash(bytes32,bytes32)":"7df7a71c"},"id":15}