{"abi":[{"type":"constructor","inputs":[{"name":"owner","type":"address","internalType":"address"}],"stateMutability":"nonpayable"},{"type":"function","name":"isValidSignature","inputs":[{"name":"","type":"bytes32","internalType":"bytes32"},{"name":"","type":"bytes","internalType":"bytes"}],"outputs":[{"name":"magicValue","type":"bytes4","internalType":"bytes4"}],"stateMutability":"view"},{"type":"function","name":"setSignatureValid","inputs":[{"name":"signatureValid","type":"bool","internalType":"bool"}],"outputs":[],"stateMutability":"nonpayable"}],"bytecode":{"object":"0x608060405234801561001057600080fd5b506040516102763803806102768339818101604052602081101561003357600080fd5b5051600080546001600160a01b039092166001600160a01b0319909216919091179055610211806100656000396000f3fe608060405234801561001057600080fd5b50600436106100365760003560e01c80631626ba7e1461003b57806319fe6ce21461011d575b600080fd5b6100e86004803603604081101561005157600080fd5b8135919081019060408101602082013564010000000081111561007357600080fd5b82018360208201111561008557600080fd5b803590602001918460018302840111640100000000831117156100a757600080fd5b91908080601f01602080910402602001604051908101604052809392919081815260200183838082843760009201919091525092955061013e945050505050565b604080517fffffffff000000000000000000000000000000000000000000000000000000009092168252519081900360200190f35b61013c6004803603602081101561013357600080fd5b50351515610191565b005b6000805474010000000000000000000000000000000000000000900460ff1661016857600061018a565b7f1626ba7e000000000000000000000000000000000000000000000000000000005b9392505050565b6000805491151574010000000000000000000000000000000000000000027fffffffffffffffffffffff00ffffffffffffffffffffffffffffffffffffffff90921691909117905556fea26469706673582212201358d40010c19c84144d6039169271a2e1bca94a13024011ff6c98d4e34870b964736f6c634300060c0033","linkReferences":{}},"methodIdentifiers":{"isValidSignature(bytes32,bytes)":"1626ba7e","setSignatureValid(bool)":"19fe6ce2"},"id":16}