{"abi":[{"type":"constructor","inputs":[{"name":"proxy","type":"address","internalType":"contract FiatTokenProxy"},{"name":"implementation","type":"address","internalType":"contract FiatTokenV2_2"},{"name":"newProxyAdmin","type":"address","internalType":"address"},{"name":"accountsToBlacklist","type":"address[]","internalType":"address[]"},{"name":"newSymbol","type":"string","internalType":"string"}],"stateMutability":"nonpayable"},{"type":"function","name":"abortUpgrade","inputs":[],"outputs":[],"stateMutability":"nonpayable"},{"type":"function","name":"accountsToBlacklist","inputs":[],"outputs":[{"name":"","type":"address[]","internalType":"address[]"}],"stateMutability":"view"},{"type":"function","name":"helper","inputs":[],"outputs":[{"name":"","type":"address","internalType":"address"}],"stateMutability":"view"},{"type":"function","name":"implementation","inputs":[],"outputs":[{"name":"","type":"address","internalType":"address"}],"stateMutability":"view"},{"type":"function","name":"newProxyAdmin","inputs":[],"outputs":[{"name":"","type":"address","internalType":"address"}],"stateMutability":"view"},{"type":"function","name":"owner","inputs":[],"outputs":[{"name":"","type":"address","internalType":"address"}],"stateMutability":"view"},{"type":"function","name":"proxy","inputs":[],"outputs":[{"name":"","type":"address","internalType":"address"}],"stateMutability":"view"},{"type":"function","name":"transferOwnership","inputs":[{"name":"newOwner","type":"address","internalType":"address"}],"outputs":[],"stateMutability":"nonpayable"},{"type":"function","name":"upgrade","inputs":[],"outputs":[],"stateMutability":"nonpayable"},{"type":"function","name":"withdrawFiatToken","inputs":[],"outputs":[],"stateMutability":"nonpayable"},{"type":"event","name":"OwnershipTransferred","inputs":[{"name":"previousOwner","type":"address","indexed":false,"internalType":"address"},{"name":"newOwner","type":"address","indexed":false,"internalType":"address"}],"anonymous":false}],"bytecode":{"object":"0x60806040523480156200001157600080fd5b50604051620040d0380380620040d0833981810160405260a08110156200003757600080fd5b8151602083015160408085015160608601805192519496939591949391820192846401000000008211156200006b57600080fd5b9083019060208201858111156200008157600080fd5b82518660208202830111640100000000821117156200009f57600080fd5b82525081516020918201928201910280838360005b83811015620000ce578181015183820152602001620000b4565b5050505090500160405260200180516040519392919084640100000000821115620000f857600080fd5b9083019060208201858111156200010e57600080fd5b82516401000000008111828201881017156200012957600080fd5b82525081516020918201929091019080838360005b83811015620001585781810151838201526020016200013e565b50505050905090810190601f168015620001865780820380516001836020036101000a031916815260200191505b50604052505050848484620001a1336200027460201b60201c565b600180546001600160a01b039485166001600160a01b0319918216179091556002805493851693821693909317909255600380549190931691161790556040518590620001ee9062000296565b6001600160a01b03909116815260405190819003602001906000f0801580156200021c573d6000803e3d6000fd5b50600480546001600160a01b0319166001600160a01b0392909216919091179055815162000252906005906020850190620002a4565b508051620002689060069060208401906200030e565b505050505050620003c7565b600080546001600160a01b0319166001600160a01b0392909216919091179055565b610ebf806200321183390190565b828054828255906000526020600020908101928215620002fc579160200282015b82811115620002fc57825182546001600160a01b0319166001600160a01b03909116178255602090920191600190910190620002c5565b506200030a9291506200038f565b5090565b828054600181600116156101000203166002900490600052602060002090601f016020900481019282601f106200035157805160ff191683800117855562000381565b8280016001018555821562000381579182015b828111156200038157825182559160200191906001019062000364565b506200030a929150620003b0565b5b808211156200030a5780546001600160a01b031916815560010162000390565b5b808211156200030a5760008155600101620003b1565b612e3a80620003d76000396000f3fe608060405234801561001057600080fd5b50600436106100be5760003560e01c80638da5cb5b11610076578063d8f6a8f61161005b578063d8f6a8f614610176578063ec5568891461017e578063f2fde38b14610186576100be565b80638da5cb5b14610166578063d55ec6971461016e576100be565b80633f247fe7116100a75780633f247fe71461014c5780635c60da1b1461015657806363b0e66a1461015e576100be565b80632d4efffe146100c35780633200867b146100f4575b600080fd5b6100cb6101b9565b6040805173ffffffffffffffffffffffffffffffffffffffff9092168252519081900360200190f35b6100fc6101d5565b60408051602080825283518183015283519192839290830191858101910280838360005b83811015610138578181015183820152602001610120565b505050509050019250505060405180910390f35b610154610244565b005b6100cb610484565b6100cb6104a0565b6100cb6104bc565b6101546104d8565b610154612682565b6100cb6127a1565b6101546004803603602081101561019c57600080fd5b503573ffffffffffffffffffffffffffffffffffffffff166127bd565b60035473ffffffffffffffffffffffffffffffffffffffff1690565b6060600580548060200260200160405190810160405280929190818152602001828054801561023a57602002820191906000526020600020905b815473ffffffffffffffffffffffffffffffffffffffff16815260019091019060200180831161020f575b5050505050905090565b60005473ffffffffffffffffffffffffffffffffffffffff1633146102ca57604080517f08c379a000000000000000000000000000000000000000000000000000000000815260206004820181905260248201527f4f776e61626c653a2063616c6c6572206973206e6f7420746865206f776e6572604482015290519081900360640190fd5b600154604080517f70a08231000000000000000000000000000000000000000000000000000000008152306004820152905173ffffffffffffffffffffffffffffffffffffffff9092169160009183916370a0823191602480820192602092909190829003018186803b15801561034057600080fd5b505afa158015610354573d6000803e3d6000fd5b505050506040513d602081101561036a57600080fd5b50519050801561048057604080517fa9059cbb00000000000000000000000000000000000000000000000000000000815233600482015260248101839052905173ffffffffffffffffffffffffffffffffffffffff84169163a9059cbb9160448083019260209291908290030181600087803b1580156103e957600080fd5b505af11580156103fd573d6000803e3d6000fd5b505050506040513d602081101561041357600080fd5b505161048057604080517f08c379a000000000000000000000000000000000000000000000000000000000815260206004820152601c60248201527f4661696c656420746f2077697468647261772046696174546f6b656e00000000604482015290519081900360640190fd5b5050565b60025473ffffffffffffffffffffffffffffffffffffffff1690565b60045473ffffffffffffffffffffffffffffffffffffffff1690565b60005473ffffffffffffffffffffffffffffffffffffffff1690565b60005473ffffffffffffffffffffffffffffffffffffffff16331461055e57604080517f08c379a000000000000000000000000000000000000000000000000000000000815260206004820181905260248201527f4f776e61626c653a2063616c6c6572206973206e6f7420746865206f776e6572604482015290519081900360640190fd5b60048054604080517f70a0823100000000000000000000000000000000000000000000000000000000815230938101939093525173ffffffffffffffffffffffffffffffffffffffff9091169160009183916370a08231916024808301926020929190829003018186803b1580156105d557600080fd5b505afa1580156105e9573d6000803e3d6000fd5b505050506040513d60208110156105ff57600080fd5b5051905062030d4081101561065f576040517f08c379a0000000000000000000000000000000000000000000000000000000008152600401808060200182810382526022815260200180612d936022913960400191505060405180910390fd5b60008273ffffffffffffffffffffffffffffffffffffffff166370a08231336040518263ffffffff1660e01b8152600401808273ffffffffffffffffffffffffffffffffffffffff16815260200191505060206040518083038186803b1580156106c857600080fd5b505afa1580156106dc573d6000803e3d6000fd5b505050506040513d60208110156106f257600080fd5b505190506106fe612cc4565b6040518061018001604052808573ffffffffffffffffffffffffffffffffffffffff166306fdde036040518163ffffffff1660e01b815260040160006040518083038186803b15801561075057600080fd5b505afa158015610764573d6000803e3d6000fd5b505050506040513d6000823e601f3d9081017fffffffffffffffffffffffffffffffffffffffffffffffffffffffffffffffe016820160405260208110156107ab57600080fd5b81019080805160405193929190846401000000008211156107cb57600080fd5b9083019060208201858111156107e057600080fd5b82516401000000008111828201881017156107fa57600080fd5b82525081516020918201929091019080838360005b8381101561082757818101518382015260200161080f565b50505050905090810190601f1680156108545780820380516001836020036101000a031916815260200191505b5060405250505081526020018573ffffffffffffffffffffffffffffffffffffffff1663313ce5676040518163ffffffff1660e01b815260040160206040518083038186803b1580156108a657600080fd5b505afa1580156108ba573d6000803e3d6000fd5b505050506040513d60208110156108d057600080fd5b505160ff168152604080517fe5a6b10f000000000000000000000000000000000000000000000000000000008152905160209092019173ffffffffffffffffffffffffffffffffffffffff88169163e5a6b10f916004808301926000929190829003018186803b15801561094357600080fd5b505afa158015610957573d6000803e3d6000fd5b505050506040513d6000823e601f3d9081017fffffffffffffffffffffffffffffffffffffffffffffffffffffffffffffffe0168201604052602081101561099e57600080fd5b81019080805160405193929190846401000000008211156109be57600080fd5b9083019060208201858111156109d357600080fd5b82516401000000008111828201881017156109ed57600080fd5b82525081516020918201929091019080838360005b83811015610a1a578181015183820152602001610a02565b50505050905090810190601f168015610a475780820380516001836020036101000a031916815260200191505b5060405250505081526020018573ffffffffffffffffffffffffffffffffffffffff166354fd4d506040518163ffffffff1660e01b815260040160006040518083038186803b158015610a9957600080fd5b505afa158015610aad573d6000803e3d6000fd5b505050506040513d6000823e601f3d9081017fffffffffffffffffffffffffffffffffffffffffffffffffffffffffffffffe01682016040526020811015610af457600080fd5b8101908080516040519392919084640100000000821115610b1457600080fd5b908301906020820185811115610b2957600080fd5b8251640100000000811182820188101715610b4357600080fd5b82525081516020918201929091019080838360005b83811015610b70578181015183820152602001610b58565b50505050905090810190601f168015610b9d5780820380516001836020036101000a031916815260200191505b5060405250505081526020018573ffffffffffffffffffffffffffffffffffffffff16633644e5156040518163ffffffff1660e01b815260040160206040518083038186803b158015610bef57600080fd5b505afa158015610c03573d6000803e3d6000fd5b505050506040513d6020811015610c1957600080fd5b50518152604080517f35d99f35000000000000000000000000000000000000000000000000000000008152905160209283019273ffffffffffffffffffffffffffffffffffffffff8916926335d99f359260048083019392829003018186803b158015610c8557600080fd5b505afa158015610c99573d6000803e3d6000fd5b505050506040513d6020811015610caf57600080fd5b505173ffffffffffffffffffffffffffffffffffffffff9081168252604080517f6d3c5bbe000000000000000000000000000000000000000000000000000000008152905160209384019392891692636d3c5bbe9260048082019391829003018186803b158015610d1f57600080fd5b505afa158015610d33573d6000803e3d6000fd5b505050506040513d6020811015610d4957600080fd5b505173ffffffffffffffffffffffffffffffffffffffff9081168252604080517f9fd0506d000000000000000000000000000000000000000000000000000000008152905160209384019392891692639fd0506d9260048082019391829003018186803b158015610db957600080fd5b505afa158015610dcd573d6000803e3d6000fd5b505050506040513d6020811015610de357600080fd5b505173ffffffffffffffffffffffffffffffffffffffff9081168252604080517fbd10243000000000000000000000000000000000000000000000000000000000815290516020938401939289169263bd1024309260048082019391829003018186803b158015610e5357600080fd5b505afa158015610e67573d6000803e3d6000fd5b505050506040513d6020811015610e7d57600080fd5b505173ffffffffffffffffffffffffffffffffffffffff9081168252604080517f38a631830000000000000000000000000000000000000000000000000000000081529051602093840193928916926338a631839260048082019391829003018186803b158015610eed57600080fd5b505afa158015610f01573d6000803e3d6000fd5b505050506040513d6020811015610f1757600080fd5b505173ffffffffffffffffffffffffffffffffffffffff9081168252604080517f5c975abb000000000000000000000000000000000000000000000000000000008152905160209384019392891692635c975abb9260048082019391829003018186803b158015610f8757600080fd5b505afa158015610f9b573d6000803e3d6000fd5b505050506040513d6020811015610fb157600080fd5b505115158152604080517f18160ddd000000000000000000000000000000000000000000000000000000008152905160209283019273ffffffffffffffffffffffffffffffffffffffff8916926318160ddd9260048083019392829003018186803b15801561101f57600080fd5b505afa158015611033573d6000803e3d6000fd5b505050506040513d602081101561104957600080fd5b50519052600154600254604080517f3659cfe600000000000000000000000000000000000000000000000000000000815273ffffffffffffffffffffffffffffffffffffffff92831660048201529051939450911691633659cfe69160248082019260009290919082900301818387803b1580156110c657600080fd5b505af11580156110da573d6000803e3d6000fd5b5050600154600354604080517f8f28397000000000000000000000000000000000000000000000000000000000815273ffffffffffffffffffffffffffffffffffffffff92831660048201529051919092169350638f2839709250602480830192600092919082900301818387803b15801561115557600080fd5b505af1158015611169573d6000803e3d6000fd5b5050600154604080517f430239b400000000000000000000000000000000000000000000000000000000815260048101918252600580546044830181905273ffffffffffffffffffffffffffffffffffffffff909416955085945063430239b49390926006929091829160248101916064909101908690801561122257602002820191906000526020600020905b815473ffffffffffffffffffffffffffffffffffffffff1681526001909101906020018083116111f7575b50508381038252845460027fffffffffffffffffffffffffffffffffffffffffffffffffffffffffffffffff6101006001841615020190911604808252602090910190859080156112b45780601f10611289576101008083540402835291602001916112b4565b820191906000526020600020905b81548152906001019060200180831161129757829003601f168201915b5050945050505050600060405180830381600087803b1580156112d657600080fd5b505af11580156112ea573d6000803e3d6000fd5b505050506112f6612cc4565b6040518061018001604052808373ffffffffffffffffffffffffffffffffffffffff166306fdde036040518163ffffffff1660e01b815260040160006040518083038186803b15801561134857600080fd5b505afa15801561135c573d6000803e3d6000fd5b505050506040513d6000823e601f3d9081017fffffffffffffffffffffffffffffffffffffffffffffffffffffffffffffffe016820160405260208110156113a357600080fd5b81019080805160405193929190846401000000008211156113c357600080fd5b9083019060208201858111156113d857600080fd5b82516401000000008111828201881017156113f257600080fd5b82525081516020918201929091019080838360005b8381101561141f578181015183820152602001611407565b50505050905090810190601f16801561144c5780820380516001836020036101000a031916815260200191505b5060405250505081526020018373ffffffffffffffffffffffffffffffffffffffff1663313ce5676040518163ffffffff1660e01b815260040160206040518083038186803b15801561149e57600080fd5b505afa1580156114b2573d6000803e3d6000fd5b505050506040513d60208110156114c857600080fd5b505160ff168152604080517fe5a6b10f000000000000000000000000000000000000000000000000000000008152905160209092019173ffffffffffffffffffffffffffffffffffffffff86169163e5a6b10f916004808301926000929190829003018186803b15801561153b57600080fd5b505afa15801561154f573d6000803e3d6000fd5b505050506040513d6000823e601f3d9081017fffffffffffffffffffffffffffffffffffffffffffffffffffffffffffffffe0168201604052602081101561159657600080fd5b81019080805160405193929190846401000000008211156115b657600080fd5b9083019060208201858111156115cb57600080fd5b82516401000000008111828201881017156115e557600080fd5b82525081516020918201929091019080838360005b838110156116125781810151838201526020016115fa565b50505050905090810190601f16801561163f5780820380516001836020036101000a031916815260200191505b5060405250505081526020018373ffffffffffffffffffffffffffffffffffffffff166354fd4d506040518163ffffffff1660e01b815260040160006040518083038186803b15801561169157600080fd5b505afa1580156116a5573d6000803e3d6000fd5b505050506040513d6000823e601f3d9081017fffffffffffffffffffffffffffffffffffffffffffffffffffffffffffffffe016820160405260208110156116ec57600080fd5b810190808051604051939291908464010000000082111561170c57600080fd5b90830190602082018581111561172157600080fd5b825164010000000081118282018810171561173b57600080fd5b82525081516020918201929091019080838360005b83811015611768578181015183820152602001611750565b50505050905090810190601f1680156117955780820380516001836020036101000a031916815260200191505b5060405250505081526020018373ffffffffffffffffffffffffffffffffffffffff16633644e5156040518163ffffffff1660e01b815260040160206040518083038186803b1580156117e757600080fd5b505afa1580156117fb573d6000803e3d6000fd5b505050506040513d602081101561181157600080fd5b50518152604080517f35d99f35000000000000000000000000000000000000000000000000000000008152905160209283019273ffffffffffffffffffffffffffffffffffffffff8716926335d99f359260048083019392829003018186803b15801561187d57600080fd5b505afa158015611891573d6000803e3d6000fd5b505050506040513d60208110156118a757600080fd5b505173ffffffffffffffffffffffffffffffffffffffff9081168252604080517f8da5cb5b000000000000000000000000000000000000000000000000000000008152905160209384019392871692638da5cb5b9260048082019391829003018186803b15801561191757600080fd5b505afa15801561192b573d6000803e3d6000fd5b505050506040513d602081101561194157600080fd5b505173ffffffffffffffffffffffffffffffffffffffff9081168252604080517f9fd0506d000000000000000000000000000000000000000000000000000000008152905160209384019392871692639fd0506d9260048082019391829003018186803b1580156119b157600080fd5b505afa1580156119c5573d6000803e3d6000fd5b505050506040513d60208110156119db57600080fd5b505173ffffffffffffffffffffffffffffffffffffffff9081168252604080517fbd10243000000000000000000000000000000000000000000000000000000000815290516020938401939287169263bd1024309260048082019391829003018186803b158015611a4b57600080fd5b505afa158015611a5f573d6000803e3d6000fd5b505050506040513d6020811015611a7557600080fd5b505173ffffffffffffffffffffffffffffffffffffffff9081168252604080517f38a631830000000000000000000000000000000000000000000000000000000081529051602093840193928716926338a631839260048082019391829003018186803b158015611ae557600080fd5b505afa158015611af9573d6000803e3d6000fd5b505050506040513d6020811015611b0f57600080fd5b505173ffffffffffffffffffffffffffffffffffffffff9081168252604080517f5c975abb000000000000000000000000000000000000000000000000000000008152905160209384019392871692635c975abb9260048082019391829003018186803b158015611b7f57600080fd5b505afa158015611b93573d6000803e3d6000fd5b505050506040513d6020811015611ba957600080fd5b505115158152604080517f18160ddd000000000000000000000000000000000000000000000000000000008152905160209283019273ffffffffffffffffffffffffffffffffffffffff8716926318160ddd9260048083019392829003018186803b158015611c1757600080fd5b505afa158015611c2b573d6000803e3d6000fd5b505050506040513d6020811015611c4157600080fd5b505190529050611c518382612910565b611ca6576040517f08c379a0000000000000000000000000000000000000000000000000000000008152600401808060200182810382526022815260200180612db56022913960400191505060405180910390fd5b60066040518082805460018160011615610100020316600290048015611d035780601f10611ce1576101008083540402835291820191611d03565b820191906000526020600020905b815481529060010190602001808311611cef575b505091505060405180910390208273ffffffffffffffffffffffffffffffffffffffff166395d89b416040518163ffffffff1660e01b815260040160006040518083038186803b158015611d5657600080fd5b505afa158015611d6a573d6000803e3d6000fd5b505050506040513d6000823e601f3d9081017fffffffffffffffffffffffffffffffffffffffffffffffffffffffffffffffe01682016040526020811015611db157600080fd5b8101908080516040519392919084640100000000821115611dd157600080fd5b908301906020820185811115611de657600080fd5b8251640100000000811182820188101715611e0057600080fd5b82525081516020918201929091019080838360005b83811015611e2d578181015183820152602001611e15565b50505050905090810190601f168015611e5a5780820380516001836020036101000a031916815260200191505b506040525050508051906020012014611ed457604080517f08c379a000000000000000000000000000000000000000000000000000000000815260206004820181905260248201527f56325f3255706772616465723a2073796d626f6c206e6f742075706461746564604482015290519081900360640190fd5b848273ffffffffffffffffffffffffffffffffffffffff166370a08231306040518263ffffffff1660e01b8152600401808273ffffffffffffffffffffffffffffffffffffffff16815260200191505060206040518083038186803b158015611f3c57600080fd5b505afa158015611f50573d6000803e3d6000fd5b505050506040513d6020811015611f6657600080fd5b505114611fbe576040517f08c379a0000000000000000000000000000000000000000000000000000000008152600401808060200182810382526023815260200180612d4a6023913960400191505060405180910390fd5b604080517fa9059cbb000000000000000000000000000000000000000000000000000000008152336004820152620186a06024820152905173ffffffffffffffffffffffffffffffffffffffff84169163a9059cbb9160448083019260209291908290030181600087803b15801561203557600080fd5b505af1158015612049573d6000803e3d6000fd5b505050506040513d602081101561205f57600080fd5b5051801561210f575061207584620186a0612b0d565b604080517f70a08231000000000000000000000000000000000000000000000000000000008152336004820152905173ffffffffffffffffffffffffffffffffffffffff8516916370a08231916024808301926020929190829003018186803b1580156120e157600080fd5b505afa1580156120f5573d6000803e3d6000fd5b505050506040513d602081101561210b57600080fd5b5051145b80156121bd575061212385620186a0612b81565b604080517f70a08231000000000000000000000000000000000000000000000000000000008152306004820152905173ffffffffffffffffffffffffffffffffffffffff8516916370a08231916024808301926020929190829003018186803b15801561218f57600080fd5b505afa1580156121a3573d6000803e3d6000fd5b505050506040513d60208110156121b957600080fd5b5051145b612212576040517f08c379a0000000000000000000000000000000000000000000000000000000008152600401808060200182810382526022815260200180612d286022913960400191505060405180910390fd5b8173ffffffffffffffffffffffffffffffffffffffff1663095ea7b387620186a06040518363ffffffff1660e01b8152600401808373ffffffffffffffffffffffffffffffffffffffff16815260200182815260200192505050602060405180830381600087803b15801561228657600080fd5b505af115801561229a573d6000803e3d6000fd5b505050506040513d60208110156122b057600080fd5b505180156123615750604080517fdd62ed3e00000000000000000000000000000000000000000000000000000000815230600482015273ffffffffffffffffffffffffffffffffffffffff888116602483015291519184169163dd62ed3e91604480820192602092909190829003018186803b15801561232f57600080fd5b505afa158015612343573d6000803e3d6000fd5b505050506040513d602081101561235957600080fd5b5051620186a0145b80156124125750604080517f23b872dd000000000000000000000000000000000000000000000000000000008152306004820152336024820152620186a06044820152905173ffffffffffffffffffffffffffffffffffffffff8816916323b872dd9160648083019260209291908290030181600087803b1580156123e557600080fd5b505af11580156123f9573d6000803e3d6000fd5b505050506040513d602081101561240f57600080fd5b50515b80156124b95750604080517fdd62ed3e000000000000000000000000000000000000000000000000000000008152306004820152336024820152905173ffffffffffffffffffffffffffffffffffffffff84169163dd62ed3e916044808301926020929190829003018186803b15801561248b57600080fd5b505afa15801561249f573d6000803e3d6000fd5b505050506040513d60208110156124b557600080fd5b5051155b801561256757506124cd8462030d40612b0d565b604080517f70a08231000000000000000000000000000000000000000000000000000000008152336004820152905173ffffffffffffffffffffffffffffffffffffffff8516916370a08231916024808301926020929190829003018186803b15801561253957600080fd5b505afa15801561254d573d6000803e3d6000fd5b505050506040513d602081101561256357600080fd5b5051145b8015612615575061257b8562030d40612b81565b604080517f70a08231000000000000000000000000000000000000000000000000000000008152306004820152905173ffffffffffffffffffffffffffffffffffffffff8516916370a08231916024808301926020929190829003018186803b1580156125e757600080fd5b505afa1580156125fb573d6000803e3d6000fd5b505050506040513d602081101561261157600080fd5b5051145b61266a576040517f08c379a000000000000000000000000000000000000000000000000000000000815260040180806020018281038252602e815260200180612dd7602e913960400191505060405180910390fd5b612672610244565b61267a612bf8565b505050505050565b60005473ffffffffffffffffffffffffffffffffffffffff16331461270857604080517f08c379a000000000000000000000000000000000000000000000000000000000815260206004820181905260248201527f4f776e61626c653a2063616c6c6572206973206e6f7420746865206f776e6572604482015290519081900360640190fd5b600154600354604080517f8f28397000000000000000000000000000000000000000000000000000000000815273ffffffffffffffffffffffffffffffffffffffff928316600482015290519190921691638f28397091602480830192600092919082900301818387803b15801561277f57600080fd5b505af1158015612793573d6000803e3d6000fd5b5050505061279f612bf8565b565b60015473ffffffffffffffffffffffffffffffffffffffff1690565b60005473ffffffffffffffffffffffffffffffffffffffff16331461284357604080517f08c379a000000000000000000000000000000000000000000000000000000000815260206004820181905260248201527f4f776e61626c653a2063616c6c6572206973206e6f7420746865206f776e6572604482015290519081900360640190fd5b73ffffffffffffffffffffffffffffffffffffffff81166128af576040517f08c379a0000000000000000000000000000000000000000000000000000000008152600401808060200182810382526026815260200180612d6d6026913960400191505060405180910390fd5b6000546040805173ffffffffffffffffffffffffffffffffffffffff9283168152918316602083015280517f8be0079c531659141344cd1fd0a4f28419497f9722a3daafe3b4186f6b6457e09281900390910190a161290d81612c7d565b50565b60008160000151805190602001208360000151805190602001201480156129445750816020015160ff16836020015160ff16145b80156129655750816040015180519060200120836040015180519060200120145b80156129865750816060015180519060200120836060015180519060200120145b8015612999575081608001518360800151145b80156129d857508160a0015173ffffffffffffffffffffffffffffffffffffffff168360a0015173ffffffffffffffffffffffffffffffffffffffff16145b8015612a1757508160c0015173ffffffffffffffffffffffffffffffffffffffff168360c0015173ffffffffffffffffffffffffffffffffffffffff16145b8015612a5657508160e0015173ffffffffffffffffffffffffffffffffffffffff168360e0015173ffffffffffffffffffffffffffffffffffffffff16145b8015612a97575081610100015173ffffffffffffffffffffffffffffffffffffffff1683610100015173ffffffffffffffffffffffffffffffffffffffff16145b8015612ad8575081610120015173ffffffffffffffffffffffffffffffffffffffff1683610120015173ffffffffffffffffffffffffffffffffffffffff16145b8015612af1575081610140015115158361014001511515145b8015612b065750816101600151836101600151145b9392505050565b600082820183811015612b0657604080517f08c379a000000000000000000000000000000000000000000000000000000000815260206004820152601b60248201527f536166654d6174683a206164646974696f6e206f766572666c6f770000000000604482015290519081900360640190fd5b600082821115612bf257604080517f08c379a000000000000000000000000000000000000000000000000000000000815260206004820152601e60248201527f536166654d6174683a207375627472616374696f6e206f766572666c6f770000604482015290519081900360640190fd5b50900390565b60048054604080517fec1e6a4f000000000000000000000000000000000000000000000000000000008152905173ffffffffffffffffffffffffffffffffffffffff9092169263ec1e6a4f92828201926000929082900301818387803b158015612c6157600080fd5b505af1158015612c75573d6000803e3d6000fd5b503392505050ff5b600080547fffffffffffffffffffffffff00000000000000000000000000000000000000001673ffffffffffffffffffffffffffffffffffffffff92909216919091179055565b60408051610180810182526060808252600060208301819052928201819052808201526080810182905260a0810182905260c0810182905260e081018290526101008101829052610120810182905261014081018290526101608101919091529056fe56325f3255706772616465723a207472616e736665722074657374206661696c656456325f3255706772616465723a2062616c616e63654f662074657374206661696c65644f776e61626c653a206e6577206f776e657220697320746865207a65726f206164647265737356325f3255706772616465723a20302e322046696174546f6b656e206e656564656456325f3255706772616465723a206d657461646174612074657374206661696c656456325f3255706772616465723a20617070726f76652f7472616e7366657246726f6d2074657374206661696c6564a2646970667358221220e9110dc73d8ac4d50404939d5684bc923a4e8d62324fa10242177ea1297afc7f64736f6c634300060c0033608060405234801561001057600080fd5b50604051610ebf380380610ebf8339818101604052602081101561003357600080fd5b5051808061004033610068565b600180546001600160a01b0319166001600160a01b03929092169190911790555061008a9050565b600080546001600160a01b0319166001600160a01b0392909216919091179055565b610e26806100996000396000f3fe608060405234801561001057600080fd5b50600436106101515760003560e01c80636d3c5bbe116100cd578063bd10243011610081578063ec1e6a4f11610066578063ec1e6a4f14610316578063ec55688914610320578063f2fde38b1461032857610151565b8063bd10243014610306578063e5a6b10f1461030e57610151565b80638da5cb5b116100b25780638da5cb5b146102ee57806395d89b41146102f65780639fd0506d146102fe57610151565b80636d3c5bbe146102b357806370a08231146102bb57610151565b806335d99f351161012457806338a631831161010957806338a631831461029b57806354fd4d50146102a35780635c975abb146102ab57610151565b806335d99f35146102625780633644e5151461029357610151565b806306fdde031461015657806318160ddd146101d357806323b872dd146101ed578063313ce56714610244575b600080fd5b61015e61035b565b6040805160208082528351818301528351919283929083019185019080838360005b83811015610198578181015183820152602001610180565b50505050905090810190601f1680156101c55780820380516001836020036101000a031916815260200191505b509250505060405180910390f35b6101db6104d6565b60408051918252519081900360200190f35b6102306004803603606081101561020357600080fd5b5073ffffffffffffffffffffffffffffffffffffffff813581169160208101359091169060400135610572565b604080519115158252519081900360200190f35b61024c61062d565b6040805160ff9092168252519081900360200190f35b61026a610698565b6040805173ffffffffffffffffffffffffffffffffffffffff9092168252519081900360200190f35b6101db610703565b61026a61076e565b61015e6107d9565b610230610844565b61026a6108af565b6101db600480360360208110156102d157600080fd5b503573ffffffffffffffffffffffffffffffffffffffff1661091a565b61026a6109c3565b61015e6109df565b61026a610a4a565b61026a610ab5565b61015e610b20565b61031e610b8b565b005b61026a610c14565b61031e6004803603602081101561033e57600080fd5b503573ffffffffffffffffffffffffffffffffffffffff16610c30565b600154604080517f06fdde03000000000000000000000000000000000000000000000000000000008152905160609273ffffffffffffffffffffffffffffffffffffffff16916306fdde03916004808301926000929190829003018186803b1580156103c657600080fd5b505afa1580156103da573d6000803e3d6000fd5b505050506040513d6000823e601f3d9081017fffffffffffffffffffffffffffffffffffffffffffffffffffffffffffffffe0168201604052602081101561042157600080fd5b810190808051604051939291908464010000000082111561044157600080fd5b90830190602082018581111561045657600080fd5b825164010000000081118282018810171561047057600080fd5b82525081516020918201929091019080838360005b8381101561049d578181015183820152602001610485565b50505050905090810190601f1680156104ca5780820380516001836020036101000a031916815260200191505b50604052505050905090565b600154604080517f18160ddd000000000000000000000000000000000000000000000000000000008152905160009273ffffffffffffffffffffffffffffffffffffffff16916318160ddd916004808301926020929190829003018186803b15801561054157600080fd5b505afa158015610555573d6000803e3d6000fd5b505050506040513d602081101561056b57600080fd5b5051905090565b600154604080517f23b872dd00000000000000000000000000000000000000000000000000000000815273ffffffffffffffffffffffffffffffffffffffff8681166004830152858116602483015260448201859052915160009392909216916323b872dd9160648082019260209290919082900301818787803b1580156105f957600080fd5b505af115801561060d573d6000803e3d6000fd5b505050506040513d602081101561062357600080fd5b5051949350505050565b600154604080517f313ce567000000000000000000000000000000000000000000000000000000008152905160009273ffffffffffffffffffffffffffffffffffffffff169163313ce567916004808301926020929190829003018186803b15801561054157600080fd5b600154604080517f35d99f35000000000000000000000000000000000000000000000000000000008152905160009273ffffffffffffffffffffffffffffffffffffffff16916335d99f35916004808301926020929190829003018186803b15801561054157600080fd5b600154604080517f3644e515000000000000000000000000000000000000000000000000000000008152905160009273ffffffffffffffffffffffffffffffffffffffff1691633644e515916004808301926020929190829003018186803b15801561054157600080fd5b600154604080517f38a63183000000000000000000000000000000000000000000000000000000008152905160009273ffffffffffffffffffffffffffffffffffffffff16916338a63183916004808301926020929190829003018186803b15801561054157600080fd5b600154604080517f54fd4d50000000000000000000000000000000000000000000000000000000008152905160609273ffffffffffffffffffffffffffffffffffffffff16916354fd4d50916004808301926000929190829003018186803b1580156103c657600080fd5b600154604080517f5c975abb000000000000000000000000000000000000000000000000000000008152905160009273ffffffffffffffffffffffffffffffffffffffff1691635c975abb916004808301926020929190829003018186803b15801561054157600080fd5b600154604080517f8da5cb5b000000000000000000000000000000000000000000000000000000008152905160009273ffffffffffffffffffffffffffffffffffffffff1691638da5cb5b916004808301926020929190829003018186803b15801561054157600080fd5b600154604080517f70a0823100000000000000000000000000000000000000000000000000000000815273ffffffffffffffffffffffffffffffffffffffff8481166004830152915160009392909216916370a0823191602480820192602092909190829003018186803b15801561099157600080fd5b505afa1580156109a5573d6000803e3d6000fd5b505050506040513d60208110156109bb57600080fd5b505192915050565b60005473ffffffffffffffffffffffffffffffffffffffff1690565b600154604080517f95d89b41000000000000000000000000000000000000000000000000000000008152905160609273ffffffffffffffffffffffffffffffffffffffff16916395d89b41916004808301926000929190829003018186803b1580156103c657600080fd5b600154604080517f9fd0506d000000000000000000000000000000000000000000000000000000008152905160009273ffffffffffffffffffffffffffffffffffffffff1691639fd0506d916004808301926020929190829003018186803b15801561054157600080fd5b600154604080517fbd102430000000000000000000000000000000000000000000000000000000008152905160009273ffffffffffffffffffffffffffffffffffffffff169163bd102430916004808301926020929190829003018186803b15801561054157600080fd5b600154604080517fe5a6b10f000000000000000000000000000000000000000000000000000000008152905160609273ffffffffffffffffffffffffffffffffffffffff169163e5a6b10f916004808301926000929190829003018186803b1580156103c657600080fd5b60005473ffffffffffffffffffffffffffffffffffffffff163314610c1157604080517f08c379a000000000000000000000000000000000000000000000000000000000815260206004820181905260248201527f4f776e61626c653a2063616c6c6572206973206e6f7420746865206f776e6572604482015290519081900360640190fd5b33ff5b60015473ffffffffffffffffffffffffffffffffffffffff1690565b60005473ffffffffffffffffffffffffffffffffffffffff163314610cb657604080517f08c379a000000000000000000000000000000000000000000000000000000000815260206004820181905260248201527f4f776e61626c653a2063616c6c6572206973206e6f7420746865206f776e6572604482015290519081900360640190fd5b73ffffffffffffffffffffffffffffffffffffffff8116610d22576040517f08c379a0000000000000000000000000000000000000000000000000000000008152600401808060200182810382526026815260200180610dcb6026913960400191505060405180910390fd5b6000546040805173ffffffffffffffffffffffffffffffffffffffff9283168152918316602083015280517f8be0079c531659141344cd1fd0a4f28419497f9722a3daafe3b4186f6b6457e09281900390910190a1610d8081610d83565b50565b600080547fffffffffffffffffffffffff00000000000000000000000000000000000000001673ffffffffffffffffffffffffffffffffffffffff9290921691909117905556fe4f776e61626c653a206e6577206f776e657220697320746865207a65726f2061646472657373a26469706673582212206d4f199d09dc63b7762c2ae6dec6ec45c86aae1ec932586c06bd593470cdd0e964736f6c634300060c0033","linkReferences":{}},"methodIdentifiers":{"abortUpgrade()":"d8f6a8f6","accountsToBlacklist()":"3200867b","helper()":"63b0e66a","implementation()":"5c60da1b","newProxyAdmin()":"2d4efffe","owner()":"8da5cb5b","proxy()":"ec556889","transferOwnership(address)":"f2fde38b","upgrade()":"d55ec697","withdrawFiatToken()":"3f247fe7"},"id":53}